{
	"contracts/ValueType.sol": {
		"ValueTypes": {
			"abi": [
				{
					"inputs": [],
					"name": "MaxInt",
					"outputs": [
						{
							"internalType": "int256",
							"name": "",
							"type": "int256"
						}
					],
					"stateMutability": "view",
					"type": "function"
				},
				{
					"inputs": [],
					"name": "addr",
					"outputs": [
						{
							"internalType": "address",
							"name": "",
							"type": "address"
						}
					],
					"stateMutability": "view",
					"type": "function"
				},
				{
					"inputs": [],
					"name": "b",
					"outputs": [
						{
							"internalType": "bool",
							"name": "",
							"type": "bool"
						}
					],
					"stateMutability": "view",
					"type": "function"
				},
				{
					"inputs": [],
					"name": "b32",
					"outputs": [
						{
							"internalType": "bytes32",
							"name": "",
							"type": "bytes32"
						}
					],
					"stateMutability": "view",
					"type": "function"
				},
				{
					"inputs": [],
					"name": "i",
					"outputs": [
						{
							"internalType": "int256",
							"name": "",
							"type": "int256"
						}
					],
					"stateMutability": "view",
					"type": "function"
				},
				{
					"inputs": [],
					"name": "minInt",
					"outputs": [
						{
							"internalType": "int256",
							"name": "",
							"type": "int256"
						}
					],
					"stateMutability": "view",
					"type": "function"
				},
				{
					"inputs": [],
					"name": "u",
					"outputs": [
						{
							"internalType": "uint256",
							"name": "",
							"type": "uint256"
						}
					],
					"stateMutability": "view",
					"type": "function"
				}
			],
			"devdoc": {
				"kind": "dev",
				"methods": {},
				"version": 1
			},
			"evm": {
				"assembly": "    /* \"contracts/ValueType.sol\":92:447  contract ValueTypes {... */\n  mstore(0x40, 0x80)\n    /* \"contracts/ValueType.sol\":135:139  true */\n  0x01\n    /* \"contracts/ValueType.sol\":119:139  bool public b = true */\n  0x00\n  dup1\n  0x0100\n  exp\n  dup2\n  sload\n  dup2\n  0xff\n  mul\n  not\n  and\n  swap1\n  dup4\n  iszero\n  iszero\n  mul\n  or\n  swap1\n  sstore\n  pop\n    /* \"contracts/ValueType.sol\":162:165  123 */\n  0x7b\n    /* \"contracts/ValueType.sol\":146:165  uint public u = 123 */\n  0x01\n  sstore\n    /* \"contracts/ValueType.sol\":189:192  123 */\n  0x7b\n    /* \"contracts/ValueType.sol\":174:192  int public i = 123 */\n  0x02\n  sstore\n    /* \"contracts/ValueType.sol\":221:234  type(int).min */\n  0x8000000000000000000000000000000000000000000000000000000000000000\n    /* \"contracts/ValueType.sol\":201:234  int public minInt = type(int).min */\n  0x03\n  sstore\n    /* \"contracts/ValueType.sol\":261:274  type(int).max */\n  0x7fffffffffffffffffffffffffffffffffffffffffffffffffffffffffffffff\n    /* \"contracts/ValueType.sol\":241:274  int public MaxInt = type(int).max */\n  0x04\n  sstore\n    /* \"contracts/ValueType.sol\":303:345  0x2B2Cc01d1d21432E49F9f2c200A0082086F37868 */\n  0x2b2cc01d1d21432e49f9f2c200a0082086f37868\n    /* \"contracts/ValueType.sol\":281:345  address public addr = 0x2B2Cc01d1d21432E49F9f2c200A0082086F37868 */\n  0x05\n  exp(0x0100, 0x00)\n  dup2\n  sload\n  dup2\n  0xffffffffffffffffffffffffffffffffffffffff\n  mul\n  not\n  and\n  swap1\n  dup4\n  0xffffffffffffffffffffffffffffffffffffffff\n  and\n  mul\n  or\n  swap1\n  sstore\n  pop\n    /* \"contracts/ValueType.sol\":373:439  0x498c622fcd22512974ccf038232f6738a3114e4c6583b07445e14bc062c37d48 */\n  0x498c622fcd22512974ccf038232f6738a3114e4c6583b07445e14bc062c37d48\n    /* \"contracts/ValueType.sol\":352:439  bytes32 public b32 = 0x498c622fcd22512974ccf038232f6738a3114e4c6583b07445e14bc062c37d48 */\n  0x00\n  shl\n  0x06\n  sstore\n    /* \"contracts/ValueType.sol\":92:447  contract ValueTypes {... */\n  callvalue\n  dup1\n  iszero\n  tag_1\n  jumpi\n  0x00\n  dup1\n  revert\ntag_1:\n  pop\n  dataSize(sub_0)\n  dup1\n  dataOffset(sub_0)\n  0x00\n  codecopy\n  0x00\n  return\nstop\n\nsub_0: assembly {\n        /* \"contracts/ValueType.sol\":92:447  contract ValueTypes {... */\n      mstore(0x40, 0x80)\n      callvalue\n      dup1\n      iszero\n      tag_1\n      jumpi\n      0x00\n      dup1\n      revert\n    tag_1:\n      pop\n      jumpi(tag_2, lt(calldatasize, 0x04))\n      shr(0xe0, calldataload(0x00))\n      dup1\n      0x7e4e14cc\n      gt\n      tag_10\n      jumpi\n      dup1\n      0x7e4e14cc\n      eq\n      tag_6\n      jumpi\n      dup1\n      0xc6a898c5\n      eq\n      tag_7\n      jumpi\n      dup1\n      0xe5aa3d58\n      eq\n      tag_8\n      jumpi\n      dup1\n      0xf8aab238\n      eq\n      tag_9\n      jumpi\n      jump(tag_2)\n    tag_10:\n      dup1\n      0x3bead474\n      eq\n      tag_3\n      jumpi\n      dup1\n      0x4df7e3d0\n      eq\n      tag_4\n      jumpi\n      dup1\n      0x767800de\n      eq\n      tag_5\n      jumpi\n    tag_2:\n      0x00\n      dup1\n      revert\n        /* \"contracts/ValueType.sol\":241:274  int public MaxInt = type(int).max */\n    tag_3:\n      tag_11\n      tag_12\n      jump\t// in\n    tag_11:\n      mload(0x40)\n      tag_13\n      swap2\n      swap1\n      tag_14\n      jump\t// in\n    tag_13:\n      mload(0x40)\n      dup1\n      swap2\n      sub\n      swap1\n      return\n        /* \"contracts/ValueType.sol\":119:139  bool public b = true */\n    tag_4:\n      tag_15\n      tag_16\n      jump\t// in\n    tag_15:\n      mload(0x40)\n      tag_17\n      swap2\n      swap1\n      tag_18\n      jump\t// in\n    tag_17:\n      mload(0x40)\n      dup1\n      swap2\n      sub\n      swap1\n      return\n        /* \"contracts/ValueType.sol\":281:345  address public addr = 0x2B2Cc01d1d21432E49F9f2c200A0082086F37868 */\n    tag_5:\n      tag_19\n      tag_20\n      jump\t// in\n    tag_19:\n      mload(0x40)\n      tag_21\n      swap2\n      swap1\n      tag_22\n      jump\t// in\n    tag_21:\n      mload(0x40)\n      dup1\n      swap2\n      sub\n      swap1\n      return\n        /* \"contracts/ValueType.sol\":201:234  int public minInt = type(int).min */\n    tag_6:\n      tag_23\n      tag_24\n      jump\t// in\n    tag_23:\n      mload(0x40)\n      tag_25\n      swap2\n      swap1\n      tag_14\n      jump\t// in\n    tag_25:\n      mload(0x40)\n      dup1\n      swap2\n      sub\n      swap1\n      return\n        /* \"contracts/ValueType.sol\":146:165  uint public u = 123 */\n    tag_7:\n      tag_26\n      tag_27\n      jump\t// in\n    tag_26:\n      mload(0x40)\n      tag_28\n      swap2\n      swap1\n      tag_29\n      jump\t// in\n    tag_28:\n      mload(0x40)\n      dup1\n      swap2\n      sub\n      swap1\n      return\n        /* \"contracts/ValueType.sol\":174:192  int public i = 123 */\n    tag_8:\n      tag_30\n      tag_31\n      jump\t// in\n    tag_30:\n      mload(0x40)\n      tag_32\n      swap2\n      swap1\n      tag_14\n      jump\t// in\n    tag_32:\n      mload(0x40)\n      dup1\n      swap2\n      sub\n      swap1\n      return\n        /* \"contracts/ValueType.sol\":352:439  bytes32 public b32 = 0x498c622fcd22512974ccf038232f6738a3114e4c6583b07445e14bc062c37d48 */\n    tag_9:\n      tag_33\n      tag_34\n      jump\t// in\n    tag_33:\n      mload(0x40)\n      tag_35\n      swap2\n      swap1\n      tag_36\n      jump\t// in\n    tag_35:\n      mload(0x40)\n      dup1\n      swap2\n      sub\n      swap1\n      return\n        /* \"contracts/ValueType.sol\":241:274  int public MaxInt = type(int).max */\n    tag_12:\n      sload(0x04)\n      dup2\n      jump\t// out\n        /* \"contracts/ValueType.sol\":119:139  bool public b = true */\n    tag_16:\n      0x00\n      dup1\n      sload\n      swap1\n      0x0100\n      exp\n      swap1\n      div\n      0xff\n      and\n      dup2\n      jump\t// out\n        /* \"contracts/ValueType.sol\":281:345  address public addr = 0x2B2Cc01d1d21432E49F9f2c200A0082086F37868 */\n    tag_20:\n      0x05\n      0x00\n      swap1\n      sload\n      swap1\n      0x0100\n      exp\n      swap1\n      div\n      0xffffffffffffffffffffffffffffffffffffffff\n      and\n      dup2\n      jump\t// out\n        /* \"contracts/ValueType.sol\":201:234  int public minInt = type(int).min */\n    tag_24:\n      sload(0x03)\n      dup2\n      jump\t// out\n        /* \"contracts/ValueType.sol\":146:165  uint public u = 123 */\n    tag_27:\n      sload(0x01)\n      dup2\n      jump\t// out\n        /* \"contracts/ValueType.sol\":174:192  int public i = 123 */\n    tag_31:\n      sload(0x02)\n      dup2\n      jump\t// out\n        /* \"contracts/ValueType.sol\":352:439  bytes32 public b32 = 0x498c622fcd22512974ccf038232f6738a3114e4c6583b07445e14bc062c37d48 */\n    tag_34:\n      sload(0x06)\n      dup2\n      jump\t// out\n        /* \"#utility.yul\":7:83   */\n    tag_37:\n        /* \"#utility.yul\":43:50   */\n      0x00\n        /* \"#utility.yul\":72:77   */\n      dup2\n        /* \"#utility.yul\":61:77   */\n      swap1\n      pop\n        /* \"#utility.yul\":7:83   */\n      swap2\n      swap1\n      pop\n      jump\t// out\n        /* \"#utility.yul\":89:204   */\n    tag_38:\n        /* \"#utility.yul\":174:197   */\n      tag_51\n        /* \"#utility.yul\":191:196   */\n      dup2\n        /* \"#utility.yul\":174:197   */\n      tag_37\n      jump\t// in\n    tag_51:\n        /* \"#utility.yul\":169:172   */\n      dup3\n        /* \"#utility.yul\":162:198   */\n      mstore\n        /* \"#utility.yul\":89:204   */\n      pop\n      pop\n      jump\t// out\n        /* \"#utility.yul\":210:428   */\n    tag_14:\n        /* \"#utility.yul\":301:305   */\n      0x00\n        /* \"#utility.yul\":339:341   */\n      0x20\n        /* \"#utility.yul\":328:337   */\n      dup3\n        /* \"#utility.yul\":324:342   */\n      add\n        /* \"#utility.yul\":316:342   */\n      swap1\n      pop\n        /* \"#utility.yul\":352:421   */\n      tag_53\n        /* \"#utility.yul\":418:419   */\n      0x00\n        /* \"#utility.yul\":407:416   */\n      dup4\n        /* \"#utility.yul\":403:420   */\n      add\n        /* \"#utility.yul\":394:400   */\n      dup5\n        /* \"#utility.yul\":352:421   */\n      tag_38\n      jump\t// in\n    tag_53:\n        /* \"#utility.yul\":210:428   */\n      swap3\n      swap2\n      pop\n      pop\n      jump\t// out\n        /* \"#utility.yul\":434:524   */\n    tag_39:\n        /* \"#utility.yul\":468:475   */\n      0x00\n        /* \"#utility.yul\":511:516   */\n      dup2\n        /* \"#utility.yul\":504:517   */\n      iszero\n        /* \"#utility.yul\":497:518   */\n      iszero\n        /* \"#utility.yul\":486:518   */\n      swap1\n      pop\n        /* \"#utility.yul\":434:524   */\n      swap2\n      swap1\n      pop\n      jump\t// out\n        /* \"#utility.yul\":530:639   */\n    tag_40:\n        /* \"#utility.yul\":611:632   */\n      tag_56\n        /* \"#utility.yul\":626:631   */\n      dup2\n        /* \"#utility.yul\":611:632   */\n      tag_39\n      jump\t// in\n    tag_56:\n        /* \"#utility.yul\":606:609   */\n      dup3\n        /* \"#utility.yul\":599:633   */\n      mstore\n        /* \"#utility.yul\":530:639   */\n      pop\n      pop\n      jump\t// out\n        /* \"#utility.yul\":645:855   */\n    tag_18:\n        /* \"#utility.yul\":732:736   */\n      0x00\n        /* \"#utility.yul\":770:772   */\n      0x20\n        /* \"#utility.yul\":759:768   */\n      dup3\n        /* \"#utility.yul\":755:773   */\n      add\n        /* \"#utility.yul\":747:773   */\n      swap1\n      pop\n        /* \"#utility.yul\":783:848   */\n      tag_58\n        /* \"#utility.yul\":845:846   */\n      0x00\n        /* \"#utility.yul\":834:843   */\n      dup4\n        /* \"#utility.yul\":830:847   */\n      add\n        /* \"#utility.yul\":821:827   */\n      dup5\n        /* \"#utility.yul\":783:848   */\n      tag_40\n      jump\t// in\n    tag_58:\n        /* \"#utility.yul\":645:855   */\n      swap3\n      swap2\n      pop\n      pop\n      jump\t// out\n        /* \"#utility.yul\":861:987   */\n    tag_41:\n        /* \"#utility.yul\":898:905   */\n      0x00\n        /* \"#utility.yul\":938:980   */\n      0xffffffffffffffffffffffffffffffffffffffff\n        /* \"#utility.yul\":931:936   */\n      dup3\n        /* \"#utility.yul\":927:981   */\n      and\n        /* \"#utility.yul\":916:981   */\n      swap1\n      pop\n        /* \"#utility.yul\":861:987   */\n      swap2\n      swap1\n      pop\n      jump\t// out\n        /* \"#utility.yul\":993:1089   */\n    tag_42:\n        /* \"#utility.yul\":1030:1037   */\n      0x00\n        /* \"#utility.yul\":1059:1083   */\n      tag_61\n        /* \"#utility.yul\":1077:1082   */\n      dup3\n        /* \"#utility.yul\":1059:1083   */\n      tag_41\n      jump\t// in\n    tag_61:\n        /* \"#utility.yul\":1048:1083   */\n      swap1\n      pop\n        /* \"#utility.yul\":993:1089   */\n      swap2\n      swap1\n      pop\n      jump\t// out\n        /* \"#utility.yul\":1095:1213   */\n    tag_43:\n        /* \"#utility.yul\":1182:1206   */\n      tag_63\n        /* \"#utility.yul\":1200:1205   */\n      dup2\n        /* \"#utility.yul\":1182:1206   */\n      tag_42\n      jump\t// in\n    tag_63:\n        /* \"#utility.yul\":1177:1180   */\n      dup3\n        /* \"#utility.yul\":1170:1207   */\n      mstore\n        /* \"#utility.yul\":1095:1213   */\n      pop\n      pop\n      jump\t// out\n        /* \"#utility.yul\":1219:1441   */\n    tag_22:\n        /* \"#utility.yul\":1312:1316   */\n      0x00\n        /* \"#utility.yul\":1350:1352   */\n      0x20\n        /* \"#utility.yul\":1339:1348   */\n      dup3\n        /* \"#utility.yul\":1335:1353   */\n      add\n        /* \"#utility.yul\":1327:1353   */\n      swap1\n      pop\n        /* \"#utility.yul\":1363:1434   */\n      tag_65\n        /* \"#utility.yul\":1431:1432   */\n      0x00\n        /* \"#utility.yul\":1420:1429   */\n      dup4\n        /* \"#utility.yul\":1416:1433   */\n      add\n        /* \"#utility.yul\":1407:1413   */\n      dup5\n        /* \"#utility.yul\":1363:1434   */\n      tag_43\n      jump\t// in\n    tag_65:\n        /* \"#utility.yul\":1219:1441   */\n      swap3\n      swap2\n      pop\n      pop\n      jump\t// out\n        /* \"#utility.yul\":1447:1524   */\n    tag_44:\n        /* \"#utility.yul\":1484:1491   */\n      0x00\n        /* \"#utility.yul\":1513:1518   */\n      dup2\n        /* \"#utility.yul\":1502:1518   */\n      swap1\n      pop\n        /* \"#utility.yul\":1447:1524   */\n      swap2\n      swap1\n      pop\n      jump\t// out\n        /* \"#utility.yul\":1530:1648   */\n    tag_45:\n        /* \"#utility.yul\":1617:1641   */\n      tag_68\n        /* \"#utility.yul\":1635:1640   */\n      dup2\n        /* \"#utility.yul\":1617:1641   */\n      tag_44\n      jump\t// in\n    tag_68:\n        /* \"#utility.yul\":1612:1615   */\n      dup3\n        /* \"#utility.yul\":1605:1642   */\n      mstore\n        /* \"#utility.yul\":1530:1648   */\n      pop\n      pop\n      jump\t// out\n        /* \"#utility.yul\":1654:1876   */\n    tag_29:\n        /* \"#utility.yul\":1747:1751   */\n      0x00\n        /* \"#utility.yul\":1785:1787   */\n      0x20\n        /* \"#utility.yul\":1774:1783   */\n      dup3\n        /* \"#utility.yul\":1770:1788   */\n      add\n        /* \"#utility.yul\":1762:1788   */\n      swap1\n      pop\n        /* \"#utility.yul\":1798:1869   */\n      tag_70\n        /* \"#utility.yul\":1866:1867   */\n      0x00\n        /* \"#utility.yul\":1855:1864   */\n      dup4\n        /* \"#utility.yul\":1851:1868   */\n      add\n        /* \"#utility.yul\":1842:1848   */\n      dup5\n        /* \"#utility.yul\":1798:1869   */\n      tag_45\n      jump\t// in\n    tag_70:\n        /* \"#utility.yul\":1654:1876   */\n      swap3\n      swap2\n      pop\n      pop\n      jump\t// out\n        /* \"#utility.yul\":1882:1959   */\n    tag_46:\n        /* \"#utility.yul\":1919:1926   */\n      0x00\n        /* \"#utility.yul\":1948:1953   */\n      dup2\n        /* \"#utility.yul\":1937:1953   */\n      swap1\n      pop\n        /* \"#utility.yul\":1882:1959   */\n      swap2\n      swap1\n      pop\n      jump\t// out\n        /* \"#utility.yul\":1965:2083   */\n    tag_47:\n        /* \"#utility.yul\":2052:2076   */\n      tag_73\n        /* \"#utility.yul\":2070:2075   */\n      dup2\n        /* \"#utility.yul\":2052:2076   */\n      tag_46\n      jump\t// in\n    tag_73:\n        /* \"#utility.yul\":2047:2050   */\n      dup3\n        /* \"#utility.yul\":2040:2077   */\n      mstore\n        /* \"#utility.yul\":1965:2083   */\n      pop\n      pop\n      jump\t// out\n        /* \"#utility.yul\":2089:2311   */\n    tag_36:\n        /* \"#utility.yul\":2182:2186   */\n      0x00\n        /* \"#utility.yul\":2220:2222   */\n      0x20\n        /* \"#utility.yul\":2209:2218   */\n      dup3\n        /* \"#utility.yul\":2205:2223   */\n      add\n        /* \"#utility.yul\":2197:2223   */\n      swap1\n      pop\n        /* \"#utility.yul\":2233:2304   */\n      tag_75\n        /* \"#utility.yul\":2301:2302   */\n      0x00\n        /* \"#utility.yul\":2290:2299   */\n      dup4\n        /* \"#utility.yul\":2286:2303   */\n      add\n        /* \"#utility.yul\":2277:2283   */\n      dup5\n        /* \"#utility.yul\":2233:2304   */\n      tag_47\n      jump\t// in\n    tag_75:\n        /* \"#utility.yul\":2089:2311   */\n      swap3\n      swap2\n      pop\n      pop\n      jump\t// out\n\n    auxdata: 0xa2646970667358221220aa93a63cdfd8d49e16ca1d4fd3878fb355e4ad7b047fbbabdd269c0d1e0adac464736f6c63430008180033\n}\n",
				"bytecode": {
					"linkReferences": {},
					"object": "608060405260015f806101000a81548160ff021916908315150217905550607b600155607b6002557f80000000000000000000000000000000000000000000000000000000000000006003557f7fffffffffffffffffffffffffffffffffffffffffffffffffffffffffffffff600455732b2cc01d1d21432e49f9f2c200a0082086f3786860055f6101000a81548173ffffffffffffffffffffffffffffffffffffffff021916908373ffffffffffffffffffffffffffffffffffffffff1602179055507f498c622fcd22512974ccf038232f6738a3114e4c6583b07445e14bc062c37d485f1b6006553480156100f4575f80fd5b506102f8806101025f395ff3fe608060405234801561000f575f80fd5b506004361061007b575f3560e01c80637e4e14cc116100595780637e4e14cc146100d9578063c6a898c5146100f7578063e5aa3d5814610115578063f8aab238146101335761007b565b80633bead4741461007f5780634df7e3d01461009d578063767800de146100bb575b5f80fd5b610087610151565b60405161009491906101bc565b60405180910390f35b6100a5610157565b6040516100b291906101ef565b60405180910390f35b6100c3610167565b6040516100d09190610247565b60405180910390f35b6100e161018c565b6040516100ee91906101bc565b60405180910390f35b6100ff610192565b60405161010c9190610278565b60405180910390f35b61011d610198565b60405161012a91906101bc565b60405180910390f35b61013b61019e565b60405161014891906102a9565b60405180910390f35b60045481565b5f8054906101000a900460ff1681565b60055f9054906101000a900473ffffffffffffffffffffffffffffffffffffffff1681565b60035481565b60015481565b60025481565b60065481565b5f819050919050565b6101b6816101a4565b82525050565b5f6020820190506101cf5f8301846101ad565b92915050565b5f8115159050919050565b6101e9816101d5565b82525050565b5f6020820190506102025f8301846101e0565b92915050565b5f73ffffffffffffffffffffffffffffffffffffffff82169050919050565b5f61023182610208565b9050919050565b61024181610227565b82525050565b5f60208201905061025a5f830184610238565b92915050565b5f819050919050565b61027281610260565b82525050565b5f60208201905061028b5f830184610269565b92915050565b5f819050919050565b6102a381610291565b82525050565b5f6020820190506102bc5f83018461029a565b9291505056fea2646970667358221220aa93a63cdfd8d49e16ca1d4fd3878fb355e4ad7b047fbbabdd269c0d1e0adac464736f6c63430008180033",
					"opcodes": "PUSH1 0x80 PUSH1 0x40 MSTORE PUSH1 0x1 PUSH0 DUP1 PUSH2 0x100 EXP DUP2 SLOAD DUP2 PUSH1 0xFF MUL NOT AND SWAP1 DUP4 ISZERO ISZERO MUL OR SWAP1 SSTORE POP PUSH1 0x7B PUSH1 0x1 SSTORE PUSH1 0x7B PUSH1 0x2 SSTORE PUSH32 0x8000000000000000000000000000000000000000000000000000000000000000 PUSH1 0x3 SSTORE PUSH32 0x7FFFFFFFFFFFFFFFFFFFFFFFFFFFFFFFFFFFFFFFFFFFFFFFFFFFFFFFFFFFFFFF PUSH1 0x4 SSTORE PUSH20 0x2B2CC01D1D21432E49F9F2C200A0082086F37868 PUSH1 0x5 PUSH0 PUSH2 0x100 EXP DUP2 SLOAD DUP2 PUSH20 0xFFFFFFFFFFFFFFFFFFFFFFFFFFFFFFFFFFFFFFFF MUL NOT AND SWAP1 DUP4 PUSH20 0xFFFFFFFFFFFFFFFFFFFFFFFFFFFFFFFFFFFFFFFF AND MUL OR SWAP1 SSTORE POP PUSH32 0x498C622FCD22512974CCF038232F6738A3114E4C6583B07445E14BC062C37D48 PUSH0 SHL PUSH1 0x6 SSTORE CALLVALUE DUP1 ISZERO PUSH2 0xF4 JUMPI PUSH0 DUP1 REVERT JUMPDEST POP PUSH2 0x2F8 DUP1 PUSH2 0x102 PUSH0 CODECOPY PUSH0 RETURN INVALID PUSH1 0x80 PUSH1 0x40 MSTORE CALLVALUE DUP1 ISZERO PUSH2 0xF JUMPI PUSH0 DUP1 REVERT JUMPDEST POP PUSH1 0x4 CALLDATASIZE LT PUSH2 0x7B JUMPI PUSH0 CALLDATALOAD PUSH1 0xE0 SHR DUP1 PUSH4 0x7E4E14CC GT PUSH2 0x59 JUMPI DUP1 PUSH4 0x7E4E14CC EQ PUSH2 0xD9 JUMPI DUP1 PUSH4 0xC6A898C5 EQ PUSH2 0xF7 JUMPI DUP1 PUSH4 0xE5AA3D58 EQ PUSH2 0x115 JUMPI DUP1 PUSH4 0xF8AAB238 EQ PUSH2 0x133 JUMPI PUSH2 0x7B JUMP JUMPDEST DUP1 PUSH4 0x3BEAD474 EQ PUSH2 0x7F JUMPI DUP1 PUSH4 0x4DF7E3D0 EQ PUSH2 0x9D JUMPI DUP1 PUSH4 0x767800DE EQ PUSH2 0xBB JUMPI JUMPDEST PUSH0 DUP1 REVERT JUMPDEST PUSH2 0x87 PUSH2 0x151 JUMP JUMPDEST PUSH1 0x40 MLOAD PUSH2 0x94 SWAP2 SWAP1 PUSH2 0x1BC JUMP JUMPDEST PUSH1 0x40 MLOAD DUP1 SWAP2 SUB SWAP1 RETURN JUMPDEST PUSH2 0xA5 PUSH2 0x157 JUMP JUMPDEST PUSH1 0x40 MLOAD PUSH2 0xB2 SWAP2 SWAP1 PUSH2 0x1EF JUMP JUMPDEST PUSH1 0x40 MLOAD DUP1 SWAP2 SUB SWAP1 RETURN JUMPDEST PUSH2 0xC3 PUSH2 0x167 JUMP JUMPDEST PUSH1 0x40 MLOAD PUSH2 0xD0 SWAP2 SWAP1 PUSH2 0x247 JUMP JUMPDEST PUSH1 0x40 MLOAD DUP1 SWAP2 SUB SWAP1 RETURN JUMPDEST PUSH2 0xE1 PUSH2 0x18C JUMP JUMPDEST PUSH1 0x40 MLOAD PUSH2 0xEE SWAP2 SWAP1 PUSH2 0x1BC JUMP JUMPDEST PUSH1 0x40 MLOAD DUP1 SWAP2 SUB SWAP1 RETURN JUMPDEST PUSH2 0xFF PUSH2 0x192 JUMP JUMPDEST PUSH1 0x40 MLOAD PUSH2 0x10C SWAP2 SWAP1 PUSH2 0x278 JUMP JUMPDEST PUSH1 0x40 MLOAD DUP1 SWAP2 SUB SWAP1 RETURN JUMPDEST PUSH2 0x11D PUSH2 0x198 JUMP JUMPDEST PUSH1 0x40 MLOAD PUSH2 0x12A SWAP2 SWAP1 PUSH2 0x1BC JUMP JUMPDEST PUSH1 0x40 MLOAD DUP1 SWAP2 SUB SWAP1 RETURN JUMPDEST PUSH2 0x13B PUSH2 0x19E JUMP JUMPDEST PUSH1 0x40 MLOAD PUSH2 0x148 SWAP2 SWAP1 PUSH2 0x2A9 JUMP JUMPDEST PUSH1 0x40 MLOAD DUP1 SWAP2 SUB SWAP1 RETURN JUMPDEST PUSH1 0x4 SLOAD DUP2 JUMP JUMPDEST PUSH0 DUP1 SLOAD SWAP1 PUSH2 0x100 EXP SWAP1 DIV PUSH1 0xFF AND DUP2 JUMP JUMPDEST PUSH1 0x5 PUSH0 SWAP1 SLOAD SWAP1 PUSH2 0x100 EXP SWAP1 DIV PUSH20 0xFFFFFFFFFFFFFFFFFFFFFFFFFFFFFFFFFFFFFFFF AND DUP2 JUMP JUMPDEST PUSH1 0x3 SLOAD DUP2 JUMP JUMPDEST PUSH1 0x1 SLOAD DUP2 JUMP JUMPDEST PUSH1 0x2 SLOAD DUP2 JUMP JUMPDEST PUSH1 0x6 SLOAD DUP2 JUMP JUMPDEST PUSH0 DUP2 SWAP1 POP SWAP2 SWAP1 POP JUMP JUMPDEST PUSH2 0x1B6 DUP2 PUSH2 0x1A4 JUMP JUMPDEST DUP3 MSTORE POP POP JUMP JUMPDEST PUSH0 PUSH1 0x20 DUP3 ADD SWAP1 POP PUSH2 0x1CF PUSH0 DUP4 ADD DUP5 PUSH2 0x1AD JUMP JUMPDEST SWAP3 SWAP2 POP POP JUMP JUMPDEST PUSH0 DUP2 ISZERO ISZERO SWAP1 POP SWAP2 SWAP1 POP JUMP JUMPDEST PUSH2 0x1E9 DUP2 PUSH2 0x1D5 JUMP JUMPDEST DUP3 MSTORE POP POP JUMP JUMPDEST PUSH0 PUSH1 0x20 DUP3 ADD SWAP1 POP PUSH2 0x202 PUSH0 DUP4 ADD DUP5 PUSH2 0x1E0 JUMP JUMPDEST SWAP3 SWAP2 POP POP JUMP JUMPDEST PUSH0 PUSH20 0xFFFFFFFFFFFFFFFFFFFFFFFFFFFFFFFFFFFFFFFF DUP3 AND SWAP1 POP SWAP2 SWAP1 POP JUMP JUMPDEST PUSH0 PUSH2 0x231 DUP3 PUSH2 0x208 JUMP JUMPDEST SWAP1 POP SWAP2 SWAP1 POP JUMP JUMPDEST PUSH2 0x241 DUP2 PUSH2 0x227 JUMP JUMPDEST DUP3 MSTORE POP POP JUMP JUMPDEST PUSH0 PUSH1 0x20 DUP3 ADD SWAP1 POP PUSH2 0x25A PUSH0 DUP4 ADD DUP5 PUSH2 0x238 JUMP JUMPDEST SWAP3 SWAP2 POP POP JUMP JUMPDEST PUSH0 DUP2 SWAP1 POP SWAP2 SWAP1 POP JUMP JUMPDEST PUSH2 0x272 DUP2 PUSH2 0x260 JUMP JUMPDEST DUP3 MSTORE POP POP JUMP JUMPDEST PUSH0 PUSH1 0x20 DUP3 ADD SWAP1 POP PUSH2 0x28B PUSH0 DUP4 ADD DUP5 PUSH2 0x269 JUMP JUMPDEST SWAP3 SWAP2 POP POP JUMP JUMPDEST PUSH0 DUP2 SWAP1 POP SWAP2 SWAP1 POP JUMP JUMPDEST PUSH2 0x2A3 DUP2 PUSH2 0x291 JUMP JUMPDEST DUP3 MSTORE POP POP JUMP JUMPDEST PUSH0 PUSH1 0x20 DUP3 ADD SWAP1 POP PUSH2 0x2BC PUSH0 DUP4 ADD DUP5 PUSH2 0x29A JUMP JUMPDEST SWAP3 SWAP2 POP POP JUMP INVALID LOG2 PUSH5 0x6970667358 0x22 SLT KECCAK256 0xAA SWAP4 0xA6 EXTCODECOPY 0xDF 0xD8 0xD4 SWAP15 AND 0xCA SAR 0x4F 0xD3 DUP8 DUP16 0xB3 SSTORE 0xE4 0xAD PUSH28 0x47FBBABDD269C0D1E0ADAC464736F6C634300081800330000000000 "
				},
				"gasEstimates": {
					"creation": {
						"codeDepositCost": "152000",
						"executionCost": "159261",
						"totalCost": "311261"
					},
					"external": {
						"MaxInt()": "2426",
						"addr()": "2553",
						"b()": "2486",
						"b32()": "2491",
						"i()": "2469",
						"minInt()": "2425",
						"u()": "2447"
					}
				},
				"methodIdentifiers": {
					"MaxInt()": "3bead474",
					"addr()": "767800de",
					"b()": "4df7e3d0",
					"b32()": "f8aab238",
					"i()": "e5aa3d58",
					"minInt()": "7e4e14cc",
					"u()": "c6a898c5"
				}
			},
			"storageLayout": {
				"storage": [
					{
						"astId": 4,
						"contract": "contracts/ValueType.sol:ValueTypes",
						"label": "b",
						"offset": 0,
						"slot": "0",
						"type": "t_bool"
					},
					{
						"astId": 7,
						"contract": "contracts/ValueType.sol:ValueTypes",
						"label": "u",
						"offset": 0,
						"slot": "1",
						"type": "t_uint256"
					},
					{
						"astId": 10,
						"contract": "contracts/ValueType.sol:ValueTypes",
						"label": "i",
						"offset": 0,
						"slot": "2",
						"type": "t_int256"
					},
					{
						"astId": 17,
						"contract": "contracts/ValueType.sol:ValueTypes",
						"label": "minInt",
						"offset": 0,
						"slot": "3",
						"type": "t_int256"
					},
					{
						"astId": 24,
						"contract": "contracts/ValueType.sol:ValueTypes",
						"label": "MaxInt",
						"offset": 0,
						"slot": "4",
						"type": "t_int256"
					},
					{
						"astId": 27,
						"contract": "contracts/ValueType.sol:ValueTypes",
						"label": "addr",
						"offset": 0,
						"slot": "5",
						"type": "t_address"
					},
					{
						"astId": 30,
						"contract": "contracts/ValueType.sol:ValueTypes",
						"label": "b32",
						"offset": 0,
						"slot": "6",
						"type": "t_bytes32"
					}
				],
				"types": {
					"t_address": {
						"encoding": "inplace",
						"label": "address",
						"numberOfBytes": "20"
					},
					"t_bool": {
						"encoding": "inplace",
						"label": "bool",
						"numberOfBytes": "1"
					},
					"t_bytes32": {
						"encoding": "inplace",
						"label": "bytes32",
						"numberOfBytes": "32"
					},
					"t_int256": {
						"encoding": "inplace",
						"label": "int256",
						"numberOfBytes": "32"
					},
					"t_uint256": {
						"encoding": "inplace",
						"label": "uint256",
						"numberOfBytes": "32"
					}
				}
			},
			"userdoc": {
				"kind": "user",
				"methods": {},
				"version": 1
			}
		}
	}
}